{"address":"0x5FbDB2315678afecb367f032d93F642f64180aa3","bytecode":"0x60806040523480156200001157600080fd5b506040518060400160405280600781526020017f446f67436f696e000000000000000000000000000000000000000000000000008152506040518060400160405280600381526020017f444f47000000000000000000000000000000000000000000000000000000000081525081600390816200008f919062000324565b508060049081620000a1919062000324565b5050506200040b565b600081519050919050565b7f4e487b7100000000000000000000000000000000000000000000000000000000600052604160045260246000fd5b7f4e487b7100000000000000000000000000000000000000000000000000000000600052602260045260246000fd5b600060028204905060018216806200012c57607f821691505b602082108103620001425762000141620000e4565b5b50919050565b60008190508160005260206000209050919050565b60006020601f8301049050919050565b600082821b905092915050565b600060088302620001ac7fffffffffffffffffffffffffffffffffffffffffffffffffffffffffffffffff826200016d565b620001b886836200016d565b95508019841693508086168417925050509392505050565b6000819050919050565b6000819050919050565b600062000205620001ff620001f984620001d0565b620001da565b620001d0565b9050919050565b6000819050919050565b6200022183620001e4565b6200023962000230826200020c565b8484546200017a565b825550505050565b600090565b6200025062000241565b6200025d81848462000216565b505050565b5b8181101562000285576200027960008262000246565b60018101905062000263565b5050565b601f821115620002d4576200029e8162000148565b620002a9846200015d565b81016020851015620002b9578190505b620002d1620002c8856200015d565b83018262000262565b50505b505050565b600082821c905092915050565b6000620002f960001984600802620002d9565b1980831691505092915050565b6000620003148383620002e6565b9150826002028217905092915050565b6200032f82620000aa565b67ffffffffffffffff8111156200034b576200034a620000b5565b5b62000357825462000113565b6200036482828562000289565b600060209050601f8311600181146200039c576000841562000387578287015190505b62000393858262000306565b86555062000403565b601f198416620003ac8662000148565b60005b82811015620003d657848901518255600182019150602085019450602081019050620003af565b86831015620003f65784890151620003f2601f891682620002e6565b8355505b6001600288020188555050505b505050505050565b61188b806200041b6000396000f3fe6080604052600436106101145760003560e01c806370a08231116100a0578063a9059cbb11610064578063a9059cbb146103c7578063b1275f9a14610404578063c42b42a014610420578063dd62ed3e1461044b578063f71d96cb1461048857610114565b806370a08231146102bc57806386e34bc1146102f957806395d89b4114610322578063a2fb11751461034d578063a457c2d71461038a57610114565b8063297f407b116100e7578063297f407b146101e9578063313ce56714610212578063395093511461023d57806349a2aaca1461027a57806363bd1d4a146102a557610114565b806306fdde0314610119578063095ea7b31461014457806318160ddd1461018157806323b872dd146101ac575b600080fd5b34801561012557600080fd5b5061012e6104c5565b60405161013b9190610fcf565b60405180910390f35b34801561015057600080fd5b5061016b6004803603810190610166919061108a565b610557565b60405161017891906110e5565b60405180910390f35b34801561018d57600080fd5b5061019661057a565b6040516101a3919061110f565b60405180910390f35b3480156101b857600080fd5b506101d360048036038101906101ce919061112a565b610584565b6040516101e091906110e5565b60405180910390f35b3480156101f557600080fd5b50610210600480360381019061020b91906111bb565b6105b3565b005b34801561021e57600080fd5b50610227610619565b6040516102349190611204565b60405180910390f35b34801561024957600080fd5b50610264600480360381019061025f919061108a565b610622565b60405161027191906110e5565b60405180910390f35b34801561028657600080fd5b5061028f610659565b60405161029c919061110f565b60405180910390f35b3480156102b157600080fd5b506102ba61065f565b005b3480156102c857600080fd5b506102e360048036038101906102de919061121f565b61068a565b6040516102f0919061110f565b60405180910390f35b34801561030557600080fd5b50610320600480360381019061031b919061124c565b6106d2565b005b34801561032e57600080fd5b5061033761076c565b6040516103449190610fcf565b60405180910390f35b34801561035957600080fd5b50610374600480360381019061036f919061124c565b6107fe565b6040516103819190611288565b60405180910390f35b34801561039657600080fd5b506103b160048036038101906103ac919061108a565b61083d565b6040516103be91906110e5565b60405180910390f35b3480156103d357600080fd5b506103ee60048036038101906103e9919061108a565b6108b4565b6040516103fb91906110e5565b60405180910390f35b61041e600480360381019061041991906111bb565b6108d7565b005b34801561042c57600080fd5b50610435610996565b604051610442919061110f565b60405180910390f35b34801561045757600080fd5b50610472600480360381019061046d91906112a3565b61099c565b60405161047f919061110f565b60405180910390f35b34801561049457600080fd5b506104af60048036038101906104aa919061124c565b610a23565b6040516104bc9190611288565b60405180910390f35b6060600380546104d490611312565b80601f016020809104026020016040519081016040528092919081815260200182805461050090611312565b801561054d5780601f106105225761010080835404028352916020019161054d565b820191906000526020600020905b81548152906001019060200180831161053057829003601f168201915b5050505050905090565b600080610562610a62565b905061056f818585610a6a565b600191505092915050565b6000600254905090565b60008061058f610a62565b905061059c858285610c33565b6105a7858585610cbf565b60019150509392505050565b6008819080600181540180825580915050600190039060005260206000200160009091909190916101000a81548173ffffffffffffffffffffffffffffffffffffffff021916908373ffffffffffffffffffffffffffffffffffffffff16021790555050565b60006012905090565b60008061062d610a62565b905061064e81858561063f858961099c565b6106499190611372565b610a6a565b600191505092915050565b60065481565b60644703610688576000606460088054905061067b91906113d5565b9050610686816106d2565b505b565b60008060008373ffffffffffffffffffffffffffffffffffffffff1673ffffffffffffffffffffffffffffffffffffffff168152602001908152602001600020549050919050565b60005b600880549050811161076857600881815481106106f5576106f4611406565b5b9060005260206000200160009054906101000a900473ffffffffffffffffffffffffffffffffffffffff1673ffffffffffffffffffffffffffffffffffffffff166108fc839081150290604051600060405180830381858888f1935050505050808061076090611435565b9150506106d5565b5050565b60606004805461077b90611312565b80601f01602080910402602001604051908101604052809291908181526020018280546107a790611312565b80156107f45780601f106107c9576101008083540402835291602001916107f4565b820191906000526020600020905b8154815290600101906020018083116107d757829003601f168201915b5050505050905090565b6008818154811061080e57600080fd5b906000526020600020016000915054906101000a900473ffffffffffffffffffffffffffffffffffffffff1681565b600080610848610a62565b90506000610856828661099c565b90508381101561089b576040517f08c379a0000000000000000000000000000000000000000000000000000000008152600401610892906114ef565b60405180910390fd5b6108a88286868403610a6a565b60019250505092915050565b6000806108bf610a62565b90506108cc818585610cbf565b600191505092915050565b60013403610943576007819080600181540180825580915050600190039060005260206000200160009091909190916101000a81548173ffffffffffffffffffffffffffffffffffffffff021916908373ffffffffffffffffffffffffffffffffffffffff1602179055505b6006600081548092919061095690611435565b919050555060c86006541115610993577fd8e8545d90a0fc949f9fa79975953750d664b3eb37074e23a481d15736e7727a60405160405180910390a15b50565b60055481565b6000600160008473ffffffffffffffffffffffffffffffffffffffff1673ffffffffffffffffffffffffffffffffffffffff16815260200190815260200160002060008373ffffffffffffffffffffffffffffffffffffffff1673ffffffffffffffffffffffffffffffffffffffff16815260200190815260200160002054905092915050565b60078181548110610a3357600080fd5b906000526020600020016000915054906101000a900473ffffffffffffffffffffffffffffffffffffffff1681565b600033905090565b600073ffffffffffffffffffffffffffffffffffffffff168373ffffffffffffffffffffffffffffffffffffffff1603610ad9576040517f08c379a0000000000000000000000000000000000000000000000000000000008152600401610ad090611581565b60405180910390fd5b600073ffffffffffffffffffffffffffffffffffffffff168273ffffffffffffffffffffffffffffffffffffffff1603610b48576040517f08c379a0000000000000000000000000000000000000000000000000000000008152600401610b3f90611613565b60405180910390fd5b80600160008573ffffffffffffffffffffffffffffffffffffffff1673ffffffffffffffffffffffffffffffffffffffff16815260200190815260200160002060008473ffffffffffffffffffffffffffffffffffffffff1673ffffffffffffffffffffffffffffffffffffffff168152602001908152602001600020819055508173ffffffffffffffffffffffffffffffffffffffff168373ffffffffffffffffffffffffffffffffffffffff167f8c5be1e5ebec7d5bd14f71427d1e84f3dd0314c0f7b2291e5b200ac8c7c3b92583604051610c26919061110f565b60405180910390a3505050565b6000610c3f848461099c565b90507fffffffffffffffffffffffffffffffffffffffffffffffffffffffffffffffff8114610cb95781811015610cab576040517f08c379a0000000000000000000000000000000000000000000000000000000008152600401610ca29061167f565b60405180910390fd5b610cb88484848403610a6a565b5b50505050565b600073ffffffffffffffffffffffffffffffffffffffff168373ffffffffffffffffffffffffffffffffffffffff1603610d2e576040517f08c379a0000000000000000000000000000000000000000000000000000000008152600401610d2590611711565b60405180910390fd5b600073ffffffffffffffffffffffffffffffffffffffff168273ffffffffffffffffffffffffffffffffffffffff1603610d9d576040517f08c379a0000000000000000000000000000000000000000000000000000000008152600401610d94906117a3565b60405180910390fd5b610da8838383610f35565b60008060008573ffffffffffffffffffffffffffffffffffffffff1673ffffffffffffffffffffffffffffffffffffffff16815260200190815260200160002054905081811015610e2e576040517f08c379a0000000000000000000000000000000000000000000000000000000008152600401610e2590611835565b60405180910390fd5b8181036000808673ffffffffffffffffffffffffffffffffffffffff1673ffffffffffffffffffffffffffffffffffffffff16815260200190815260200160002081905550816000808573ffffffffffffffffffffffffffffffffffffffff1673ffffffffffffffffffffffffffffffffffffffff168152602001908152602001600020600082825401925050819055508273ffffffffffffffffffffffffffffffffffffffff168473ffffffffffffffffffffffffffffffffffffffff167fddf252ad1be2c89b69c2b068fc378daa952ba7f163c4a11628f55a4df523b3ef84604051610f1c919061110f565b60405180910390a3610f2f848484610f3a565b50505050565b505050565b505050565b600081519050919050565b600082825260208201905092915050565b60005b83811015610f79578082015181840152602081019050610f5e565b60008484015250505050565b6000601f19601f8301169050919050565b6000610fa182610f3f565b610fab8185610f4a565b9350610fbb818560208601610f5b565b610fc481610f85565b840191505092915050565b60006020820190508181036000830152610fe98184610f96565b905092915050565b600080fd5b600073ffffffffffffffffffffffffffffffffffffffff82169050919050565b600061102182610ff6565b9050919050565b61103181611016565b811461103c57600080fd5b50565b60008135905061104e81611028565b92915050565b6000819050919050565b61106781611054565b811461107257600080fd5b50565b6000813590506110848161105e565b92915050565b600080604083850312156110a1576110a0610ff1565b5b60006110af8582860161103f565b92505060206110c085828601611075565b9150509250929050565b60008115159050919050565b6110df816110ca565b82525050565b60006020820190506110fa60008301846110d6565b92915050565b61110981611054565b82525050565b60006020820190506111246000830184611100565b92915050565b60008060006060848603121561114357611142610ff1565b5b60006111518682870161103f565b93505060206111628682870161103f565b925050604061117386828701611075565b9150509250925092565b600061118882610ff6565b9050919050565b6111988161117d565b81146111a357600080fd5b50565b6000813590506111b58161118f565b92915050565b6000602082840312156111d1576111d0610ff1565b5b60006111df848285016111a6565b91505092915050565b600060ff82169050919050565b6111fe816111e8565b82525050565b600060208201905061121960008301846111f5565b92915050565b60006020828403121561123557611234610ff1565b5b60006112438482850161103f565b91505092915050565b60006020828403121561126257611261610ff1565b5b600061127084828501611075565b91505092915050565b6112828161117d565b82525050565b600060208201905061129d6000830184611279565b92915050565b600080604083850312156112ba576112b9610ff1565b5b60006112c88582860161103f565b92505060206112d98582860161103f565b9150509250929050565b7f4e487b7100000000000000000000000000000000000000000000000000000000600052602260045260246000fd5b6000600282049050600182168061132a57607f821691505b60208210810361133d5761133c6112e3565b5b50919050565b7f4e487b7100000000000000000000000000000000000000000000000000000000600052601160045260246000fd5b600061137d82611054565b915061138883611054565b92508282019050808211156113a05761139f611343565b5b92915050565b7f4e487b7100000000000000000000000000000000000000000000000000000000600052601260045260246000fd5b60006113e082611054565b91506113eb83611054565b9250826113fb576113fa6113a6565b5b828204905092915050565b7f4e487b7100000000000000000000000000000000000000000000000000000000600052603260045260246000fd5b600061144082611054565b91507fffffffffffffffffffffffffffffffffffffffffffffffffffffffffffffffff820361147257611471611343565b5b600182019050919050565b7f45524332303a2064656372656173656420616c6c6f77616e63652062656c6f7760008201527f207a65726f000000000000000000000000000000000000000000000000000000602082015250565b60006114d9602583610f4a565b91506114e48261147d565b604082019050919050565b60006020820190508181036000830152611508816114cc565b9050919050565b7f45524332303a20617070726f76652066726f6d20746865207a65726f2061646460008201527f7265737300000000000000000000000000000000000000000000000000000000602082015250565b600061156b602483610f4a565b91506115768261150f565b604082019050919050565b6000602082019050818103600083015261159a8161155e565b9050919050565b7f45524332303a20617070726f766520746f20746865207a65726f20616464726560008201527f7373000000000000000000000000000000000000000000000000000000000000602082015250565b60006115fd602283610f4a565b9150611608826115a1565b604082019050919050565b6000602082019050818103600083015261162c816115f0565b9050919050565b7f45524332303a20696e73756666696369656e7420616c6c6f77616e6365000000600082015250565b6000611669601d83610f4a565b915061167482611633565b602082019050919050565b600060208201905081810360008301526116988161165c565b9050919050565b7f45524332303a207472616e736665722066726f6d20746865207a65726f20616460008201527f6472657373000000000000000000000000000000000000000000000000000000602082015250565b60006116fb602583610f4a565b91506117068261169f565b604082019050919050565b6000602082019050818103600083015261172a816116ee565b9050919050565b7f45524332303a207472616e7366657220746f20746865207a65726f206164647260008201527f6573730000000000000000000000000000000000000000000000000000000000602082015250565b600061178d602383610f4a565b915061179882611731565b604082019050919050565b600060208201905081810360008301526117bc81611780565b9050919050565b7f45524332303a207472616e7366657220616d6f756e742065786365656473206260008201527f616c616e63650000000000000000000000000000000000000000000000000000602082015250565b600061181f602683610f4a565b915061182a826117c3565b604082019050919050565b6000602082019050818103600083015261184e81611812565b905091905056fea2646970667358221220361ff4298163da0731863a86d1cd4e6726a5691d3dafcc8d8023d7a2036718e864736f6c63430008110033","abi":[{"inputs":[],"stateMutability":"nonpayable","type":"constructor"},{"anonymous":false,"inputs":[{"indexed":true,"internalType":"address","name":"owner","type":"address"},{"indexed":true,"internalType":"address","name":"spender","type":"address"},{"indexed":false,"internalType":"uint256","name":"value","type":"uint256"}],"name":"Approval","type":"event"},{"anonymous":false,"inputs":[{"indexed":true,"internalType":"address","name":"from","type":"address"},{"indexed":true,"internalType":"address","name":"to","type":"address"},{"indexed":false,"internalType":"uint256","name":"value","type":"uint256"}],"name":"Transfer","type":"event"},{"anonymous":false,"inputs":[],"name":"startPayout","type":"event"},{"inputs":[{"internalType":"address payable","name":"_player","type":"address"}],"name":"addPlayer","outputs":[],"stateMutability":"payable","type":"function"},{"inputs":[{"internalType":"address payable","name":"_winner","type":"address"}],"name":"addWinner","outputs":[],"stateMutability":"nonpayable","type":"function"},{"inputs":[{"internalType":"address","name":"owner","type":"address"},{"internalType":"address","name":"spender","type":"address"}],"name":"allowance","outputs":[{"internalType":"uint256","name":"","type":"uint256"}],"stateMutability":"view","type":"function"},{"inputs":[{"internalType":"address","name":"spender","type":"address"},{"internalType":"uint256","name":"amount","type":"uint256"}],"name":"approve","outputs":[{"internalType":"bool","name":"","type":"bool"}],"stateMutability":"nonpayable","type":"function"},{"inputs":[{"internalType":"address","name":"account","type":"address"}],"name":"balanceOf","outputs":[{"internalType":"uint256","name":"","type":"uint256"}],"stateMutability":"view","type":"function"},{"inputs":[],"name":"currentPrize","outputs":[{"internalType":"uint256","name":"","type":"uint256"}],"stateMutability":"view","type":"function"},{"inputs":[],"name":"decimals","outputs":[{"internalType":"uint8","name":"","type":"uint8"}],"stateMutability":"view","type":"function"},{"inputs":[{"internalType":"address","name":"spender","type":"address"},{"internalType":"uint256","name":"subtractedValue","type":"uint256"}],"name":"decreaseAllowance","outputs":[{"internalType":"bool","name":"","type":"bool"}],"stateMutability":"nonpayable","type":"function"},{"inputs":[{"internalType":"address","name":"spender","type":"address"},{"internalType":"uint256","name":"addedValue","type":"uint256"}],"name":"increaseAllowance","outputs":[{"internalType":"bool","name":"","type":"bool"}],"stateMutability":"nonpayable","type":"function"},{"inputs":[],"name":"name","outputs":[{"internalType":"string","name":"","type":"string"}],"stateMutability":"view","type":"function"},{"inputs":[],"name":"numberPlayers","outputs":[{"internalType":"uint256","name":"","type":"uint256"}],"stateMutability":"view","type":"function"},{"inputs":[{"internalType":"uint256","name":"_amount","type":"uint256"}],"name":"payWinners","outputs":[],"stateMutability":"nonpayable","type":"function"},{"inputs":[],"name":"payout","outputs":[],"stateMutability":"nonpayable","type":"function"},{"inputs":[{"internalType":"uint256","name":"","type":"uint256"}],"name":"players","outputs":[{"internalType":"address payable","name":"","type":"address"}],"stateMutability":"view","type":"function"},{"inputs":[],"name":"symbol","outputs":[{"internalType":"string","name":"","type":"string"}],"stateMutability":"view","type":"function"},{"inputs":[],"name":"totalSupply","outputs":[{"internalType":"uint256","name":"","type":"uint256"}],"stateMutability":"view","type":"function"},{"inputs":[{"internalType":"address","name":"to","type":"address"},{"internalType":"uint256","name":"amount","type":"uint256"}],"name":"transfer","outputs":[{"internalType":"bool","name":"","type":"bool"}],"stateMutability":"nonpayable","type":"function"},{"inputs":[{"internalType":"address","name":"from","type":"address"},{"internalType":"address","name":"to","type":"address"},{"internalType":"uint256","name":"amount","type":"uint256"}],"name":"transferFrom","outputs":[{"internalType":"bool","name":"","type":"bool"}],"stateMutability":"nonpayable","type":"function"},{"inputs":[{"internalType":"uint256","name":"","type":"uint256"}],"name":"winners","outputs":[{"internalType":"address payable","name":"","type":"address"}],"stateMutability":"view","type":"function"}]}