{
  "_format": "hh-sol-artifact-1",
  "contractName": "SwapDAI",
  "sourceName": "contracts/swapDAI.sol",
  "abi": [
    {
      "inputs": [
        {
          "internalType": "contract ISwapRouter",
          "name": "_swapRouter",
          "type": "address"
        }
      ],
      "stateMutability": "nonpayable",
      "type": "constructor"
    },
    {
      "inputs": [],
      "name": "BINANCE_ADDRESS",
      "outputs": [
        {
          "internalType": "address",
          "name": "",
          "type": "address"
        }
      ],
      "stateMutability": "view",
      "type": "function"
    },
    {
      "inputs": [],
      "name": "BUSD",
      "outputs": [
        {
          "internalType": "address",
          "name": "",
          "type": "address"
        }
      ],
      "stateMutability": "view",
      "type": "function"
    },
    {
      "inputs": [],
      "name": "DAI",
      "outputs": [
        {
          "internalType": "address",
          "name": "",
          "type": "address"
        }
      ],
      "stateMutability": "view",
      "type": "function"
    },
    {
      "inputs": [],
      "name": "USDC",
      "outputs": [
        {
          "internalType": "address",
          "name": "",
          "type": "address"
        }
      ],
      "stateMutability": "view",
      "type": "function"
    },
    {
      "inputs": [],
      "name": "WETH9",
      "outputs": [
        {
          "internalType": "address",
          "name": "",
          "type": "address"
        }
      ],
      "stateMutability": "view",
      "type": "function"
    },
    {
      "inputs": [],
      "name": "poolFee",
      "outputs": [
        {
          "internalType": "uint24",
          "name": "",
          "type": "uint24"
        }
      ],
      "stateMutability": "view",
      "type": "function"
    },
    {
      "inputs": [
        {
          "internalType": "uint256",
          "name": "amountIn",
          "type": "uint256"
        },
        {
          "internalType": "address",
          "name": "tokenIn",
          "type": "address"
        },
        {
          "internalType": "address",
          "name": "tokenOut",
          "type": "address"
        }
      ],
      "name": "swapExactInputSingle",
      "outputs": [
        {
          "internalType": "uint256",
          "name": "amountOut",
          "type": "uint256"
        }
      ],
      "stateMutability": "nonpayable",
      "type": "function"
    },
    {
      "inputs": [
        {
          "internalType": "uint256",
          "name": "amountOut",
          "type": "uint256"
        },
        {
          "internalType": "uint256",
          "name": "amountInMaximum",
          "type": "uint256"
        }
      ],
      "name": "swapExactOutputSingle",
      "outputs": [
        {
          "internalType": "uint256",
          "name": "amountIn",
          "type": "uint256"
        }
      ],
      "stateMutability": "nonpayable",
      "type": "function"
    },
    {
      "inputs": [],
      "name": "swapRouter",
      "outputs": [
        {
          "internalType": "contract ISwapRouter",
          "name": "",
          "type": "address"
        }
      ],
      "stateMutability": "view",
      "type": "function"
    }
  ],
  "bytecode": "0x60a06040523480156200001157600080fd5b50604051620011d7380380620011d783398181016040528101906200003791906200008c565b8073ffffffffffffffffffffffffffffffffffffffff1660808173ffffffffffffffffffffffffffffffffffffffff1660601b81525050506200011a565b600081519050620000868162000100565b92915050565b6000602082840312156200009f57600080fd5b6000620000af8482850162000075565b91505092915050565b6000620000c582620000e0565b9050919050565b6000620000d982620000b8565b9050919050565b600073ffffffffffffffffffffffffffffffffffffffff82169050919050565b6200010b81620000cc565b81146200011757600080fd5b50565b60805160601c611086620001516000398061022c52806102f252806103bf528061041d528061050a52806105d752506110866000f3fe608060405234801561001057600080fd5b50600436106100935760003560e01c80634ce4dca5116100665780634ce4dca51461011057806389a3027114610140578063c31c9c071461015e578063c4b69a181461017c578063e0bab4c4146101ac57610093565b8063089fe6aa14610098578063484f4ea9146100b65780634aa4a4fc146100d45780634c840bef146100f2575b600080fd5b6100a06101ca565b6040516100ad9190610f7d565b60405180910390f35b6100be6101d0565b6040516100cb9190610f0f565b60405180910390f35b6100dc6101e8565b6040516100e99190610f0f565b60405180910390f35b6100fa610200565b6040516101079190610f0f565b60405180910390f35b61012a60048036038101906101259190610cc8565b610218565b6040516101379190610f98565b60405180910390f35b6101486103a5565b6040516101559190610f0f565b60405180910390f35b6101666103bd565b6040516101739190610f2a565b60405180910390f35b61019660048036038101906101919190610d17565b6103e1565b6040516101a39190610f98565b60405180910390f35b6101b4610626565b6040516101c19190610f0f565b60405180910390f35b610bb881565b734fabb145d64652a948d72533023f6e7a623c7c5381565b73c02aaa39b223fe8d0a0e5c4f27ead9083c756cc281565b73dfd5293d8e347dfe59e90efd55b2956a1343963d81565b60006102268333308761063e565b610251837f00000000000000000000000000000000000000000000000000000000000000008661085e565b60006040518061010001604052808573ffffffffffffffffffffffffffffffffffffffff1681526020018473ffffffffffffffffffffffffffffffffffffffff168152602001610bb862ffffff1681526020013373ffffffffffffffffffffffffffffffffffffffff16815260200142815260200186815260200160008152602001600073ffffffffffffffffffffffffffffffffffffffff1681525090507f000000000000000000000000000000000000000000000000000000000000000073ffffffffffffffffffffffffffffffffffffffff1663414bf389826040518263ffffffff1660e01b81526004016103499190610f45565b602060405180830381600087803b15801561036357600080fd5b505af1158015610377573d6000803e3d6000fd5b505050506040513d601f19601f8201168201806040525081019061039b9190610c9f565b9150509392505050565b73a0b86991c6218b36c1d19d4a2e9eb0ce3606eb4881565b7f000000000000000000000000000000000000000000000000000000000000000081565b6000610403736b175474e89094c44da98b954eedeac495271d0f33308561063e565b610442736b175474e89094c44da98b954eedeac495271d0f7f00000000000000000000000000000000000000000000000000000000000000008461085e565b6000604051806101000160405280736b175474e89094c44da98b954eedeac495271d0f73ffffffffffffffffffffffffffffffffffffffff16815260200173c02aaa39b223fe8d0a0e5c4f27ead9083c756cc273ffffffffffffffffffffffffffffffffffffffff168152602001610bb862ffffff1681526020013373ffffffffffffffffffffffffffffffffffffffff168152602001428152602001858152602001848152602001600073ffffffffffffffffffffffffffffffffffffffff1681525090507f000000000000000000000000000000000000000000000000000000000000000073ffffffffffffffffffffffffffffffffffffffff1663db3e2198826040518263ffffffff1660e01b81526004016105619190610f61565b602060405180830381600087803b15801561057b57600080fd5b505af115801561058f573d6000803e3d6000fd5b505050506040513d601f19601f820116820180604052508101906105b39190610c9f565b91508282101561061f576105fd736b175474e89094c44da98b954eedeac495271d0f7f0000000000000000000000000000000000000000000000000000000000000000600061085e565b61061e736b175474e89094c44da98b954eedeac495271d0f33848603610a5f565b5b5092915050565b736b175474e89094c44da98b954eedeac495271d0f81565b6000808573ffffffffffffffffffffffffffffffffffffffff166323b872dd60e01b868686604051602401808473ffffffffffffffffffffffffffffffffffffffff1681526020018373ffffffffffffffffffffffffffffffffffffffff1681526020018281526020019350505050604051602081830303815290604052907bffffffffffffffffffffffffffffffffffffffffffffffffffffffff19166020820180517bffffffffffffffffffffffffffffffffffffffffffffffffffffffff83818316178352505050506040518082805190602001908083835b6020831061073d578051825260208201915060208101905060208303925061071a565b6001836020036101000a0380198251168184511680821785525050505050509050019150506000604051808303816000865af19150503d806000811461079f576040519150601f19603f3d011682016040523d82523d6000602084013e6107a4565b606091505b50915091508180156107e457506000815114806107e357508080602001905160208110156107d157600080fd5b81019080805190602001909291905050505b5b610856576040517f08c379a00000000000000000000000000000000000000000000000000000000081526004018080602001828103825260038152602001807f535446000000000000000000000000000000000000000000000000000000000081525060200191505060405180910390fd5b505050505050565b6000808473ffffffffffffffffffffffffffffffffffffffff1663095ea7b360e01b8585604051602401808373ffffffffffffffffffffffffffffffffffffffff16815260200182815260200192505050604051602081830303815290604052907bffffffffffffffffffffffffffffffffffffffffffffffffffffffff19166020820180517bffffffffffffffffffffffffffffffffffffffffffffffffffffffff83818316178352505050506040518082805190602001908083835b6020831061093f578051825260208201915060208101905060208303925061091c565b6001836020036101000a0380198251168184511680821785525050505050509050019150506000604051808303816000865af19150503d80600081146109a1576040519150601f19603f3d011682016040523d82523d6000602084013e6109a6565b606091505b50915091508180156109e657506000815114806109e557508080602001905160208110156109d357600080fd5b81019080805190602001909291905050505b5b610a58576040517f08c379a00000000000000000000000000000000000000000000000000000000081526004018080602001828103825260028152602001807f534100000000000000000000000000000000000000000000000000000000000081525060200191505060405180910390fd5b5050505050565b6000808473ffffffffffffffffffffffffffffffffffffffff1663a9059cbb60e01b8585604051602401808373ffffffffffffffffffffffffffffffffffffffff16815260200182815260200192505050604051602081830303815290604052907bffffffffffffffffffffffffffffffffffffffffffffffffffffffff19166020820180517bffffffffffffffffffffffffffffffffffffffffffffffffffffffff83818316178352505050506040518082805190602001908083835b60208310610b405780518252602082019150602081019050602083039250610b1d565b6001836020036101000a0380198251168184511680821785525050505050509050019150506000604051808303816000865af19150503d8060008114610ba2576040519150601f19603f3d011682016040523d82523d6000602084013e610ba7565b606091505b5091509150818015610be75750600081511480610be65750808060200190516020811015610bd457600080fd5b81019080805190602001909291905050505b5b610c59576040517f08c379a00000000000000000000000000000000000000000000000000000000081526004018080602001828103825260028152602001807f535400000000000000000000000000000000000000000000000000000000000081525060200191505060405180910390fd5b5050505050565b600081359050610c6f81611022565b92915050565b600081359050610c8481611039565b92915050565b600081519050610c9981611039565b92915050565b600060208284031215610cb157600080fd5b6000610cbf84828501610c8a565b91505092915050565b600080600060608486031215610cdd57600080fd5b6000610ceb86828701610c75565b9350506020610cfc86828701610c60565b9250506040610d0d86828701610c60565b9150509250925092565b60008060408385031215610d2a57600080fd5b6000610d3885828601610c75565b9250506020610d4985828601610c75565b9150509250929050565b610d5c81610fb3565b82525050565b610d6b81610fb3565b82525050565b610d7a81610ffe565b82525050565b61010082016000820151610d976000850182610d53565b506020820151610daa6020850182610d53565b506040820151610dbd6040850182610ed3565b506060820151610dd06060850182610d53565b506080820151610de36080850182610ef1565b5060a0820151610df660a0850182610ef1565b5060c0820151610e0960c0850182610ef1565b5060e0820151610e1c60e0850182610ec4565b50505050565b61010082016000820151610e396000850182610d53565b506020820151610e4c6020850182610d53565b506040820151610e5f6040850182610ed3565b506060820151610e726060850182610d53565b506080820151610e856080850182610ef1565b5060a0820151610e9860a0850182610ef1565b5060c0820151610eab60c0850182610ef1565b5060e0820151610ebe60e0850182610ec4565b50505050565b610ecd81610fc5565b82525050565b610edc81610fe5565b82525050565b610eeb81610fe5565b82525050565b610efa81610ff4565b82525050565b610f0981610ff4565b82525050565b6000602082019050610f246000830184610d62565b92915050565b6000602082019050610f3f6000830184610d71565b92915050565b600061010082019050610f5b6000830184610d80565b92915050565b600061010082019050610f776000830184610e22565b92915050565b6000602082019050610f926000830184610ee2565b92915050565b6000602082019050610fad6000830184610f00565b92915050565b6000610fbe82610fc5565b9050919050565b600073ffffffffffffffffffffffffffffffffffffffff82169050919050565b600062ffffff82169050919050565b6000819050919050565b600061100982611010565b9050919050565b600061101b82610fc5565b9050919050565b61102b81610fb3565b811461103657600080fd5b50565b61104281610ff4565b811461104d57600080fd5b5056fea2646970667358221220d95f861b874e983718cc43e6309cc667d61ff162554f5dadd8f4174f4ec4ddb764736f6c63430007060033",
  "linkReferences": {},
  "deployedLinkReferences": {}
}