{
  "_format": "hh-sol-artifact-1",
  "contractName": "SwapDAI",
  "sourceName": "contracts/swapDAI.sol",
  "abi": [
    {
      "inputs": [
        {
          "internalType": "contract ISwapRouter",
          "name": "_swapRouter",
          "type": "address"
        }
      ],
      "stateMutability": "nonpayable",
      "type": "constructor"
    },
    {
      "inputs": [],
      "name": "BINANCE_ADDRESS",
      "outputs": [
        {
          "internalType": "address",
          "name": "",
          "type": "address"
        }
      ],
      "stateMutability": "view",
      "type": "function"
    },
    {
      "inputs": [],
      "name": "BUSD",
      "outputs": [
        {
          "internalType": "address",
          "name": "",
          "type": "address"
        }
      ],
      "stateMutability": "view",
      "type": "function"
    },
    {
      "inputs": [],
      "name": "DAI",
      "outputs": [
        {
          "internalType": "address",
          "name": "",
          "type": "address"
        }
      ],
      "stateMutability": "view",
      "type": "function"
    },
    {
      "inputs": [],
      "name": "USDC",
      "outputs": [
        {
          "internalType": "address",
          "name": "",
          "type": "address"
        }
      ],
      "stateMutability": "view",
      "type": "function"
    },
    {
      "inputs": [],
      "name": "WETH9",
      "outputs": [
        {
          "internalType": "address",
          "name": "",
          "type": "address"
        }
      ],
      "stateMutability": "view",
      "type": "function"
    },
    {
      "inputs": [
        {
          "internalType": "uint256",
          "name": "amountIn",
          "type": "uint256"
        },
        {
          "internalType": "address",
          "name": "tokenIn",
          "type": "address"
        },
        {
          "internalType": "address",
          "name": "tokenOut",
          "type": "address"
        },
        {
          "internalType": "uint24",
          "name": "poolFee",
          "type": "uint24"
        }
      ],
      "name": "swapExactInputSingle",
      "outputs": [
        {
          "internalType": "uint256",
          "name": "amountOut",
          "type": "uint256"
        }
      ],
      "stateMutability": "nonpayable",
      "type": "function"
    },
    {
      "inputs": [
        {
          "internalType": "uint256",
          "name": "amountOut",
          "type": "uint256"
        },
        {
          "internalType": "uint256",
          "name": "amountInMaximum",
          "type": "uint256"
        },
        {
          "internalType": "uint24",
          "name": "poolFee",
          "type": "uint24"
        }
      ],
      "name": "swapExactOutputSingle",
      "outputs": [
        {
          "internalType": "uint256",
          "name": "amountIn",
          "type": "uint256"
        }
      ],
      "stateMutability": "nonpayable",
      "type": "function"
    },
    {
      "inputs": [],
      "name": "swapRouter",
      "outputs": [
        {
          "internalType": "contract ISwapRouter",
          "name": "",
          "type": "address"
        }
      ],
      "stateMutability": "view",
      "type": "function"
    }
  ],
  "bytecode": "0x60a06040523480156200001157600080fd5b50604051620011cf380380620011cf83398181016040528101906200003791906200008c565b8073ffffffffffffffffffffffffffffffffffffffff1660808173ffffffffffffffffffffffffffffffffffffffff1660601b81525050506200011a565b600081519050620000868162000100565b92915050565b6000602082840312156200009f57600080fd5b6000620000af8482850162000075565b91505092915050565b6000620000c582620000e0565b9050919050565b6000620000d982620000b8565b9050919050565b600073ffffffffffffffffffffffffffffffffffffffff82169050919050565b6200010b81620000cc565b81146200011757600080fd5b50565b60805160601c61107e620001516000398061021552806102d9528061038f52806103ed52806104d852806105a5525061107e6000f3fe608060405234801561001057600080fd5b50600436106100885760003560e01c8063bd13338c1161005b578063bd13338c14610105578063c31c9c0714610135578063df2133b314610153578063e0bab4c41461018357610088565b8063484f4ea91461008d5780634aa4a4fc146100ab5780634c840bef146100c957806389a30271146100e7575b600080fd5b6100956101a1565b6040516100a29190610f0b565b60405180910390f35b6100b36101b9565b6040516100c09190610f0b565b60405180910390f35b6100d16101d1565b6040516100de9190610f0b565b60405180910390f35b6100ef6101e9565b6040516100fc9190610f0b565b60405180910390f35b61011f600480360381019061011a9190610cac565b610201565b60405161012c9190610f79565b60405180910390f35b61013d61038d565b60405161014a9190610f26565b60405180910390f35b61016d60048036038101906101689190610d0f565b6103b1565b60405161017a9190610f79565b60405180910390f35b61018b6105f5565b6040516101989190610f0b565b60405180910390f35b734fabb145d64652a948d72533023f6e7a623c7c5381565b73c02aaa39b223fe8d0a0e5c4f27ead9083c756cc281565b73dfd5293d8e347dfe59e90efd55b2956a1343963d81565b73a0b86991c6218b36c1d19d4a2e9eb0ce3606eb4881565b600061020f8433308861060d565b61023a847f00000000000000000000000000000000000000000000000000000000000000008761082d565b60006040518061010001604052808673ffffffffffffffffffffffffffffffffffffffff1681526020018573ffffffffffffffffffffffffffffffffffffffff1681526020018462ffffff1681526020013373ffffffffffffffffffffffffffffffffffffffff16815260200142815260200187815260200160008152602001600073ffffffffffffffffffffffffffffffffffffffff1681525090507f000000000000000000000000000000000000000000000000000000000000000073ffffffffffffffffffffffffffffffffffffffff1663414bf389826040518263ffffffff1660e01b81526004016103309190610f41565b602060405180830381600087803b15801561034a57600080fd5b505af115801561035e573d6000803e3d6000fd5b505050506040513d601f19601f820116820180604052508101906103829190610c83565b915050949350505050565b7f000000000000000000000000000000000000000000000000000000000000000081565b60006103d3736b175474e89094c44da98b954eedeac495271d0f33308661060d565b610412736b175474e89094c44da98b954eedeac495271d0f7f00000000000000000000000000000000000000000000000000000000000000008561082d565b6000604051806101000160405280736b175474e89094c44da98b954eedeac495271d0f73ffffffffffffffffffffffffffffffffffffffff16815260200173c02aaa39b223fe8d0a0e5c4f27ead9083c756cc273ffffffffffffffffffffffffffffffffffffffff1681526020018462ffffff1681526020013373ffffffffffffffffffffffffffffffffffffffff168152602001428152602001868152602001858152602001600073ffffffffffffffffffffffffffffffffffffffff1681525090507f000000000000000000000000000000000000000000000000000000000000000073ffffffffffffffffffffffffffffffffffffffff1663db3e2198826040518263ffffffff1660e01b815260040161052f9190610f5d565b602060405180830381600087803b15801561054957600080fd5b505af115801561055d573d6000803e3d6000fd5b505050506040513d601f19601f820116820180604052508101906105819190610c83565b9150838210156105ed576105cb736b175474e89094c44da98b954eedeac495271d0f7f0000000000000000000000000000000000000000000000000000000000000000600061082d565b6105ec736b175474e89094c44da98b954eedeac495271d0f33848703610a2e565b5b509392505050565b736b175474e89094c44da98b954eedeac495271d0f81565b6000808573ffffffffffffffffffffffffffffffffffffffff166323b872dd60e01b868686604051602401808473ffffffffffffffffffffffffffffffffffffffff1681526020018373ffffffffffffffffffffffffffffffffffffffff1681526020018281526020019350505050604051602081830303815290604052907bffffffffffffffffffffffffffffffffffffffffffffffffffffffff19166020820180517bffffffffffffffffffffffffffffffffffffffffffffffffffffffff83818316178352505050506040518082805190602001908083835b6020831061070c57805182526020820191506020810190506020830392506106e9565b6001836020036101000a0380198251168184511680821785525050505050509050019150506000604051808303816000865af19150503d806000811461076e576040519150601f19603f3d011682016040523d82523d6000602084013e610773565b606091505b50915091508180156107b357506000815114806107b257508080602001905160208110156107a057600080fd5b81019080805190602001909291905050505b5b610825576040517f08c379a00000000000000000000000000000000000000000000000000000000081526004018080602001828103825260038152602001807f535446000000000000000000000000000000000000000000000000000000000081525060200191505060405180910390fd5b505050505050565b6000808473ffffffffffffffffffffffffffffffffffffffff1663095ea7b360e01b8585604051602401808373ffffffffffffffffffffffffffffffffffffffff16815260200182815260200192505050604051602081830303815290604052907bffffffffffffffffffffffffffffffffffffffffffffffffffffffff19166020820180517bffffffffffffffffffffffffffffffffffffffffffffffffffffffff83818316178352505050506040518082805190602001908083835b6020831061090e57805182526020820191506020810190506020830392506108eb565b6001836020036101000a0380198251168184511680821785525050505050509050019150506000604051808303816000865af19150503d8060008114610970576040519150601f19603f3d011682016040523d82523d6000602084013e610975565b606091505b50915091508180156109b557506000815114806109b457508080602001905160208110156109a257600080fd5b81019080805190602001909291905050505b5b610a27576040517f08c379a00000000000000000000000000000000000000000000000000000000081526004018080602001828103825260028152602001807f534100000000000000000000000000000000000000000000000000000000000081525060200191505060405180910390fd5b5050505050565b6000808473ffffffffffffffffffffffffffffffffffffffff1663a9059cbb60e01b8585604051602401808373ffffffffffffffffffffffffffffffffffffffff16815260200182815260200192505050604051602081830303815290604052907bffffffffffffffffffffffffffffffffffffffffffffffffffffffff19166020820180517bffffffffffffffffffffffffffffffffffffffffffffffffffffffff83818316178352505050506040518082805190602001908083835b60208310610b0f5780518252602082019150602081019050602083039250610aec565b6001836020036101000a0380198251168184511680821785525050505050509050019150506000604051808303816000865af19150503d8060008114610b71576040519150601f19603f3d011682016040523d82523d6000602084013e610b76565b606091505b5091509150818015610bb65750600081511480610bb55750808060200190516020811015610ba357600080fd5b81019080805190602001909291905050505b5b610c28576040517f08c379a00000000000000000000000000000000000000000000000000000000081526004018080602001828103825260028152602001807f535400000000000000000000000000000000000000000000000000000000000081525060200191505060405180910390fd5b5050505050565b600081359050610c3e81611003565b92915050565b600081359050610c538161101a565b92915050565b600081359050610c6881611031565b92915050565b600081519050610c7d81611031565b92915050565b600060208284031215610c9557600080fd5b6000610ca384828501610c6e565b91505092915050565b60008060008060808587031215610cc257600080fd5b6000610cd087828801610c59565b9450506020610ce187828801610c2f565b9350506040610cf287828801610c2f565b9250506060610d0387828801610c44565b91505092959194509250565b600080600060608486031215610d2457600080fd5b6000610d3286828701610c59565b9350506020610d4386828701610c59565b9250506040610d5486828701610c44565b9150509250925092565b610d6781610f94565b82525050565b610d7681610f94565b82525050565b610d8581610fdf565b82525050565b61010082016000820151610da26000850182610d5e565b506020820151610db56020850182610d5e565b506040820151610dc86040850182610ede565b506060820151610ddb6060850182610d5e565b506080820151610dee6080850182610eed565b5060a0820151610e0160a0850182610eed565b5060c0820151610e1460c0850182610eed565b5060e0820151610e2760e0850182610ecf565b50505050565b61010082016000820151610e446000850182610d5e565b506020820151610e576020850182610d5e565b506040820151610e6a6040850182610ede565b506060820151610e7d6060850182610d5e565b506080820151610e906080850182610eed565b5060a0820151610ea360a0850182610eed565b5060c0820151610eb660c0850182610eed565b5060e0820151610ec960e0850182610ecf565b50505050565b610ed881610fa6565b82525050565b610ee781610fc6565b82525050565b610ef681610fd5565b82525050565b610f0581610fd5565b82525050565b6000602082019050610f206000830184610d6d565b92915050565b6000602082019050610f3b6000830184610d7c565b92915050565b600061010082019050610f576000830184610d8b565b92915050565b600061010082019050610f736000830184610e2d565b92915050565b6000602082019050610f8e6000830184610efc565b92915050565b6000610f9f82610fa6565b9050919050565b600073ffffffffffffffffffffffffffffffffffffffff82169050919050565b600062ffffff82169050919050565b6000819050919050565b6000610fea82610ff1565b9050919050565b6000610ffc82610fa6565b9050919050565b61100c81610f94565b811461101757600080fd5b50565b61102381610fc6565b811461102e57600080fd5b50565b61103a81610fd5565b811461104557600080fd5b5056fea2646970667358221220d357c05b091fbcb719f594e5b5062cade8ca1a853db4f33274f40938231d865364736f6c63430007060033",
  "linkReferences": {},
  "deployedLinkReferences": {}
}